:0200000460009A
:100000004643464200000156000000000101020084
:1000100000000000000000000000000000000000E0
:1000200000000000000000000000000000000000D0
:1000300000000000000000000000000000000000C0
:1000400000000000010403000000000000000000A8
:100050000000200000000000000000000000000080
:100060000000000000000000000000000000000090
:100070000000000000000000000000000000000080
:10008000EB04180A063204260000000000000000FD
:10009000050404240000000000000000000000002F
:1000A0000000000000000000000000000000000050
:1000B0000604000000000000000000000000000036
:1000C0000000000000000000000000000000000030
:1000D00020041808000000000000000000000000DC
:1000E0000000000000000000000000000000000010
:1000F0000000000000000000000000000000000000
:1001000000000000000000000000000000000000EF
:100110000204180804200000000000000000000095
:1001200000000000000000000000000000000000CF
:10013000600400000000000000000000000000005B
:1001400000000000000000000000000000000000AF
:10015000000000000000000000000000000000009F
:10016000000000000000000000000000000000008F
:10017000000000000000000000000000000000007F
:10018000000000000000000000000000000000006F
:10019000000000000000000000000000000000005F
:1001A000000000000000000000000000000000004F
:1001B000000000000000000000000000000000003F
:1001C000000100000010000001000000000000001D
:1001D000000000000000000000000000000000001F
:1001E000000000000000000000000000000000000F
:1001F00000000000000000000000000000000000FF
:10020000D4D4D4D4D4D4D4D4D4D4D4D4D4D4D4D4AE
:10100000D10020400020006000000000000000002F
:1010100020100060001000600000000000000000D0
:101020000000006074E3000000000000EFBEADDED1
:10103000124880F3088812481249016000F036F81F
:10104000114812490022814201D004C0FBE7104838
:101050001049114A814202D008CA08C0FAE70F4875
:101060004FF47001026842EA01020260BFF34F8F41
:10107000BFF36F8F00F014F800DE00000040002086
:1010800008ED00E000400020005000209485002082
:10109000B84200205444002074E3006088ED00E072
:1010A00041F2132CC0F2000C6047D4D41C4840F22B
:1010B000924188420CBF1B4A1B4A1C4B5360136869
:1010C00023F0800313601A481A4901BF1A480A0C1A
:1010D0008264C1F30F014164016C41F004010164B9
:1010E0001648174A824205D01649814202D008CAE2
:1010F00008C0FAE71448154A824205D014498142D3
:1011000002D008CA08C0FAE71248134A824205D042
:101110001249814202D008CA08C0FAE770470000AD
:10112000240400000080034000C00B4020C528D9E3
:1011300000C00A40AAAAFAFF00400E4000000000CA
:10114000B8220060089F00000040002000200060DE
:10115000B842002000002020C0C10060B42120203F
:10116000D4D4D4D4D4D4D4D4D4D4D4D4D4D4D4D43F
:10117000D4D4D4D4D4D4D4D4D4D4D4D4D4D4D4D42F
:10118000D4D4D4D4D4D4D4D4D4D4D4D4D4D4D4D41F
:10119000D4D4D4D4D4D4D4D4D4D4D4D4D4D4D4D40F
:10200000004000203110006033310000ED9E0000E0
:102010003331000033310000333100000000000094
:10202000000000000000000000000000333100004C
:102030003331000000000000333100003331000074
:102040003331000033310000333100003331000000
:1020500033310000333100003331000033310000F0
:1020600033310000333100003331000033310000E0
:1020700033310000333100003331000033310000D0
:1020800033310000000000000000000000000000EC
:1020900033310000333100003331000033310000B0
:1020A00033310000333100003331000033310000A0
:1020B0003331000033310000333100003331000090
:1020C0003331000033310000333100003331000080
:1020D0003331000033310000333100003331000070
:1020E0003331000033310000333100003331000060
:1020F0003331000033310000333100003331000050
:10210000333100003331000033310000333100003F
:1021100000000000333100000000000033310000F7
:10212000333100003331000033310000333100001F
:102130003331000033310000000000003331000073
:1021400033310000333100003331000033310000FF
:1021500033310000333100000000000000000000B7
:1021600033310000333100003331000033310000DF
:1021700033310000333100003331000033310000CF
:1021800033310000333100003331000033310000BF
:1021900033310000333100003331000033310000AF
:1021A000333100003331000033310000333100009F
:1021B000333100003331000033310000333100008F
:1021C00033310000333100003331000000000000E3
:1021D000333100003331000033310000333100006F
:1021E000333100003331000033310000333100005F
:1021F000333100003331000033310000333100004F
:1022000033310000E7240000333100003331000097
:10221000333100003331000033310000333100002E
:10222000333100003331000033310000333100001E
:102230003331000033310000333100000000000072
:102240000000000033310000333100003331000062
:1022500033310000333100003331000033310000EE
:1022600033310000333100003331000033310000DE
:1022700033310000333100003331000033310000CE
:1022800033310000333100003331000033310000BE
:1022900033310000333100003331000033310000AE
:1022A0003331000033310000333100000000000002
:0822B00033310000333100005E
:1022B8007047F0B503AF4DF804BD82B00468002044
:1022C8008029019003D201208DF8041032E0022009
:1022D8000A4660F39F12B1F5006F07D28DF805200A
:1022E800C02242EA91118DF8041023E0B1F5803F35
:1022F8000DD28DF806208A0960F39F12E02040EA8B
:1023080011308DF804008DF80520032012E08DF8B7
:1023180007208A0960F39F128DF806200A0B60F3E4
:102328009F12880C1E218DF8052061F3DF008DF8BF
:102338000400042001AE351807E043EA8211861C28
:10234800204600F0C7F9AE4226D0304616F9012BD8
:10235800B2F1FF3FD1B2F3DC437801F01F02DF296D
:1023680003F03F03E9D98678F02906F03F0646EAEC
:1023780083130DD3C17802F0070201F03F0141EA4F
:10238800831141EA8241B1F5881F05D0061DD7E7C0
:1023980043EA0231C61CD3E7002002B05DF804BB53
:1023A800F0BDF0B503AF4DF8048D88B0D0F800C08B
:1023B80002AA91E8714140F200011346C2F22001DD
:1023C80083E8714101A8CDF804C008F0CCF808B042
:1023D8005DF8048BF0BDF0B503AF4DF804BD92B3C2
:1023E80004688E180D4607E043EA8211851C2046D2
:1023F80000F070F9B54226D0284615F9012BB2F144
:10240800FF3FD1B2F3DC437801F01F02DF2903F06C
:102418003F03E9D98578F02905F03F0545EA83139C
:102428000DD3C17802F0070201F03F0141EA8311A0
:1024380041EA8241B1F5881F05D0051DD7E743EA77
:102448000231C51CD3E700205DF804BBF0BDD4D42D
:10245800F0B503AF4DF804BD82B00446057A0620F6
:1024680021468DF8040000208DF80000684601F030
:1024780009FBC0B2072840F02681182021468DF8B4
:1024880004000820ADF80000684601F0FBFAC0B26D
:10249800072840F01881142021468DF804003F20B9
:1024A8008DF80000684601F0EDFAC0B2072840F048
:1024B8000A81162000268DF80400684621468DF80A
:1024C800006001F0DFFAC0B2072840F0FC8012205B
:1024D80021468DF8040068468DF8006001F0D2FAB4
:1024E800C0B2072840F0EF801C2021468DF8040078
:1024F80001208DF80000684601F0C4FAC0B2072830
:1025080040F0E1800E2021468DF8040002208DF86D
:102518000000684601F0B6FAC0B2072840F0D38040
:10252800172021468DF804000120ADF80000684608
:1025380001F0A8FAC0B2072840F0C5802572DFE88C
:1025480005F00219052C1320012501E013200025B0
:102558008DF80400684621468DF8005001F092FA83
:10256800C0B2072840F0AF8015208DF800508DF8D4
:10257800040026E0132021468DF8040000208DF881
:102588000000684601F07EFAC0B2072840F09B8040
:1025980015208DF80400012011E0132021468DF844
:1025A800040001208DF80000684601F06BFAC0B203
:1025B800072840F0888015208DF8040000208DF849
:1025C80000006846214601F05DFAC0B207287AD1BA
:1025D80001F078FD0D4619218DF8010001208DF8D4
:1025E800041021468DF80000684601F04BFAC0B28D
:1025F800072868D1032021468DF8040068468DF825
:10260800005001F03FFAC0B207285CD11A20042517
:102618008DF80400684621468DF8005001F032FA22
:10262800C0B207284FD18DF80450002568462146CE
:102638008DF8005001F026FAC0B2072843D10520D2
:1026480021468DF8040068468DF8005001F01AFA0A
:10265800C0B2072837D1092021468DF80400002090
:102668008DF80000684601F00DFAC0B207282AD19B
:10267800062001258DF80400684621468DF8005093
:1026880001F000FAC0B207281DD1207A022148F2D1
:1026980040026172C8F24002C10044F28000C4F2F4
:1026A8008000C84022FA01F101F022FDC4F80B00B5
:1026B8002046A5720021002202B05DF804BBBDE8E7
:1026C800F04000F0A1B902B05DF804BBBDE8F040ED
:1026D80001F0AABDF0B503AF2DE9000F87B004469D
:1026E8000A2925D00D294ED10D2021468DF8140038
:1026F80000208DF8100004A801F0C4F9C0B2072822
:102708004AD1A07A002800F0738104F10B0528460D
:1027180001F05FFDA07A002800F06A810A46284689
:10272800002101F043FD092007B0BDE8000FF0BD0E
:10273800A07A002800F05C8104F10B0001F017FD7D
:1027480005460D208DF8140000208DF8100004A80F
:10275800214601F097F9C0B207281DD1E80001F021
:10276800B4FCC0B211218DF8100004A88DF8141023
:10277800214601F087F9C0B207280DD1092007B01A
:10278800BDE8000FF0BD207ADFE800F0020D020D71
:1027980002A800F0A1F905E107B0BDE8000FBDE807
:1027A800F04001F041BD04A800F096F9DDE90430DD
:1027B8004FF0040A4FF0020C4FF0400B4FF0200985
:1027C8004FF08008190ADAB241EA006101920091DB
:1027D8004CEA921649060AEA13550BEA104158BF0B
:1027E800C2F380162944082202EAD36508EAD05EBB
:1027F8002944102505EA90020A4409EA50210A44AE
:102808000821724432448DF80E2009EA1022C3F3DD
:10281800401632440CEA133632440AEAD3463244AC
:1028280001EA9366324405EA500632440BEAD03690
:10283800324408EA905632438DF80D2000F0100219
:10284800C3F3001632440CEAD32632440AEA93460C
:10285800324401EA5366324409EAD01632440BEA9C
:102868009036324408EA505632438DF80C206FF007
:102878007F0203F0010602EA5042C3F3C005324466
:102888000CEAD31632440AEA9336324401EA535624
:10289800324400F00106C3F3800142EA061209EA55
:1028A800D00632440BEA902632438DF808201A0EDF
:1028B80042EA002E0EF008022A440CEA93252A4424
:1028C8000AEA53452A4400F0080542EA450209EAA3
:1028D80090152A440BEA50352A4408EA10552A4331
:1028E8008DF80B200CEA53251A0C42EA004C0822FA
:1028F8000CF00406314402EAD3562944009A3144C4
:1029080000F00406C3F3400541EA860109EA5016BF
:1029180031440BEA1036314408EAD046314302F01C
:1029280002068DF80A102E440AEAD33108253144EC
:1029380005EA9353194400F0020341EAC30109EA86
:10294800101319440BEAD023194408EA9043194399
:102958008DF80910019953B2002B4FFA8CF24FEA07
:10296800D11148BF0231002A48BF04314FFA8EF214
:10297800002A48BF083142B2002A48BF41F010017E
:1029880040F30722002A48BF41F0200140F30742E4
:10299800002A48BF41F04001002848BF41F08001AB
:1029A8008DF80F10082004A9069002A805900020B1
:1029B8000490204600F09BFCC0B207281DD1A07AE5
:1029C800B0B104F10B05284601F09AFB284601F046
:1029D80000FC02460B46114620461A4600F014F841
:1029E800C0B2092808BF092007B0BDE8000FF0BD34
:1029F800072007B0BDE8000FF0BD01F015FCC0B21C
:102A080007B0BDE8000FF0BDF0B503AF4DF8048D79
:102A180082B00646807A002851D006F10B08144689
:102A28000D46404601F0D9FBC3B2EAB293424FF0DB
:102A3800080082BFE2B2C9B2914203D802B05DF881
:102A4800048BF0BD307ADFE800F0021102110D208E
:102A580031468DF80400E8008DF80000684601F062
:102A680011F8C0B207282FD1E0000DE00D20314643
:102A78008DF80400E0008DF80000684601F002F8C7
:102A8800C0B2072820D1E80001F01FFB1121C0B215
:102A98008DF8041031468DF80000684600F0F2FF0A
:102AA800C0B2072810D1B07A48B14046294622461C
:102AB80001F07CFB092002B05DF8048BF0BD072013
:102AC80002B05DF8048BF0BD02B05DF8048BBDE880
:102AD800F04001F0A9BBD4D421395D2900F2688007
:102AE800DFE811F05E006A0070007B0084008F0050
:102AF8009A00A400AE00B100BA00C300C600CA0024
:102B0800D400DD00E500ED00F700FF000801120128
:102B1800170122012C0136013A0144014C015601EA
:102B2800580160016B0175017701790181018B0101
:102B38009501A001AA01B301BD01C801D201D501C7
:102B4800E001EA01F401FF010A0214021F0229024E
:102B580034023F024A0250025B0265026E027802AA
:102B680081028D0297029D02A302A502A802AE026D
:102B7800B502BE02C702CE02D602DE02E302EC02B2
:102B8800F502FE0204030D0315031E0326032F039B
:102B9800380341034A0353035C0364036C0374035F
:102BA80000212F22C0F8031082700180C171704784
:102BB8000021416001607047002141604FF003210E
:102BC8000160704743F61271C0F21201416041F290
:102BD8000021C1F23F210160704743F62A2141607C
:102BE80042F60061C7F62A710160704743F204217A
:102BF800C0F23101416042F20031C0F613010160B8
:102C0800704741F22A01C0F22001416041F20001FF
:102C1800C2F22A51016070470021012282704FF4EC
:102C28000072C0F803100280C17170470021212290
:102C380082704FF4F052C0F803100280C1717047DF
:102C480000211E22BEE140F62A01416040F6000143
:102C5800C1F62A410160704740F60801416040F61C
:102C68000001C3F60861016070470021602275E029
:102C78004FF00831082284E00021302282704FF49E
:102C88004052C0F803100280C17170474FF40171BF
:102C9800416042F20001C0F610010160704742F243
:102CA8002531C0F21E01416041F6006171E142F236
:102CB8002001C0F22001416042F20021C1E026213A
:102CC800C1804FF02931C0F802104FF448510180FB
:102CD800704742F22551C0F21A01416041F20021C9
:102CE8009CE041F23F01416041F60001C1F214212C
:102CF800016070471921C1804FF02531C0F80210DA
:102D08004FF4B851018070471821C1804FF0253128
:102D1800CCE040F20951C0F20301416040F20011D9
:102D2800C3F20111016070471A21C1804FF02531AB
:102D3800C0F802104FF4D051018070471E21C180A5
:102D48004FF02931C0F802104FF4C061018070477C
:102D580000214FF410522CE200216422C0F8031025
:102D680082704FF400420280C171704700214160B7
:102D780040F60001C2F21421016070474FF014318F
:102D88001422C0F80110002101704271C1807047FF
:102D98000021EAE140F22951C0F20201416040F20B
:102DA8000021BAE042F62B51C0F20E01416041F613
:102DB8000061C2F62151016070473E21C1804FF089
:102DC8000931C0F802104FF47851018070471A2178
:102DD8000AE0122167E041F22121C0F20C014160B2
:102DE80043F600711AE02121C1804FF02531C0F867
:102DF80002104FF47C51018070470121C1804FF0CF
:102E08000531C0F802104FF47C510180704742F63A
:102E18002111C0F21A01416041F60061C2F221118C
:102E2800016070473F21C1804FF00431C0F80210A3
:102E38004FF47C510180704742F22111416042F207
:102E48000011C3F62171016070471F21C1804FF046
:102E58002031C0F802104FF480510180704741F2D0
:102E68000A11C0F22001416043F60071C0F6044126
:102E7800016070474FF02031C0F802104FF47C51C8
:102E880001802021C180704740F2042101E041F215
:102E98000801C0F23F01416043F60071C0F20241EF
:102EA800016070471E21C1804FF02131C0F8021027
:102EB8004FF4F051018070470621C1804FF009316D
:102EC800C0F802104FF47C510180704742F2311172
:102ED800C0F25E01416041F60061C2F62111016055
:102EE800704741F60911C0F22601416043F60071AE
:102EF800C0F60911016070471821C1804FF02531D3
:102F0800C0F802104FF490510180704740F23F1111
:102F1800C0F20101416040F20011C0F201110160EC
:102F280070471F21C1804FF02031C0F802104FF4C4
:102F3800F8510180704741F22001C0F20F01416051
:102F480040F60071C2F210010160704742F21001B0
:102F5800C0F21F01416041F60071C1F22001016019
:102F6800704741F20C21C0F22101416042F2001188
:102F7800C0F61241016070474FF48171416040F220
:102F8800001197E042F22531C0F22101416042F27E
:102F98000011C2F6311101607047002121228270B0
:102FA8004FF47C52C0F803100280C171704742F29E
:102FB8001001416040F20021C0F604010160704731
:102FC80000213F22C0F8031082704FF4045202809F
:102FD800C171704740F20241416040F20041C3F6BE
:102FE8000271016070474FF0403144F24002C0F86E
:102FF800011000210170A0F80520C171704700215F
:10300800022282704FF48072C0F803100280C171EE
:10301800704743F62A41416041F200017CE041F6E5
:103028002401416043F6007165E0222151E043F636
:1030380024715DE042F22A41416041F600416BE0B3
:10304800012141600021C0F23E510160704747F6FE
:10305800A441416041F60001CAF2A44101607047F1
:1030680043F60401416043F60071C0F20441016077
:103078007047202141600021C3F624510160704748
:103088003D21416042F20001C4F2400101607047F5
:103098002021416043F60071C1F20C2101607047A4
:1030A8000021416041F6007147E043F6024141606A
:1030B80043F60061C3F602410160704743F60241DE
:1030C800416043F60061C0F202210160704741F699
:1030D8002241416041F60041C2F22221016070475D
:1030E80041F6240141604FF6004104E04FF62441C7
:1030F800416041F60001C2F224410160704702219B
:10310800416043F60061C0F204210160704741F25A
:103118002A01416042F20041C2F62A21016070474B
:103128002021416040F20021C2F21F210160704756
:103138004FF4F151416041F60061C2F22001016093
:1031480070474FF4C361416040F20061C2F2180158
:103158000160704741F63061416041F60061C1F697
:1031680030410160704742F21421416042F200216F
:10317800C0F614010160704747F6A041416041F66E
:103188000041CAF2A0010160704742F22621416065
:1031980042F20021C2F632210160704700214160ED
:1031A80040F60041C2F23F110160704700214FF420
:1031B8007C52C0F802100280C18070470021416033
:1031C80042F20011C0F63F410160704701214160A1
:1031D80040F20021C0F2012101607047F0B503AF51
:1031E8002DE9000784B004460E208DF8080001A8D8
:1031F800002521468DF8045000F044FCC0B2072891
:103208006ED10F2021468DF808004FF4FE40ADF82E
:10321800040001A8657200F035FCC0B207285FD130
:10322800607A022816D0002000F04FFF05463F20A4
:1032380000F04BFF1021C0B28DF80810E9B28DF8EC
:10324800050001A88DF80410214600F01BFCC0B24F
:10325800072845D140F2300A01AD4FF000084FF081
:103268000809C2F2200A002670B2B0F1FF3F0CDD57
:1032780020462946CDF80C90CDE9018A00F037F8B0
:103288000136C0B20728EFD02AE00E2002258DF8BB
:10329800080001A821468DF8045000F0F3FBC0B2E5
:1032A80007281DD1207A48F24002C8F24002657210
:1032B800C10044F28000C4F28000C84022FA01F143
:1032C80000F016FFC4F80B000120A0722046002170
:1032D800002204B0BDE80007BDE8F040FFF794BB4A
:1032E80004B0BDE80007BDE8F04000F09DBFF0B5B0
:1032F80003AF2DE9000786B080460868042833D05C
:1033080000284ED18C68002C00F0CC80A7F1290948
:103318004D68002009F1010A47F81C0C47F8200CF9
:1033280047F8240C47F8280C98F8050007F8290CEA
:10333800002C00F0B7802646102C28BF10265046D7
:103348002946324608F060FD98F80410731C404680
:103358004A46A41B354400F018FA0028E8D001209A
:1033680006B0BDE80007F0BDD1E90150C4680020EF
:1033780098F8051047F81C0C47F81F0C47F8230C61
:1033880047F8270C284607F8291CA047C00700F073
:103398008980284607F8281CA047C00706D10323C0
:1033A80073E0042006B0BDE80007F0BD284607F822
:1033B800271CA047C00701D1042366E0284607F868
:1033C800261CA047C00701D105235EE0284607F860
:1033D800251CA047C00701D1062356E0284607F858
:1033E800241CA047C00701D107234EE0284607F850
:1033F800231CA047C00701D1082346E0284607F848
:10340800221CA047C00701D109233EE0284607F83F
:10341800211CA047C00701D10A2336E0284607F837
:10342800201CA047C00701D10B232EE0284607F82F
:103438001F1CA047C00701D10C2326E0284607F827
:103448001E1CA047C00701D10D231EE0284607F81F
:103458001D1CA047C00701D10E2316E0284607F817
:103468001C1CA047C00701D10F230EE0284607F80F
:103478001B1CA047C00701D1102306E0284607F807
:103488001A1CA047C00712D1112398F80410A7F1FD
:103498002902404600F079F920B1012006B0BDE8C4
:1034A8000007F0BD072006B0BDE80007F0BD40F2F8
:1034B800A4021220C2F22002112107F041FEFEDE12
:1034C800704780B56F4600F001F8FEDE80B56F46A4
:1034D800ADF5A16D0DF54E79484601F0C8FD05A87A
:1034E800494600F0E0FB05AEA4980490012130465F
:1034F800A19CAD9D00F017FF2846314600F098F9D1
:10350800054609F10A0000F090FE44F23C00CDE9BE
:10351800CE504FF40070ADF8400304A801F051FFFD
:10352800804620680E4640F2E73120F00100206016
:10353800606861F30B006060206820F4B860803038
:103548002060206820F001002060A06840F0200082
:10355800A060E06820F02000E060206820F400709F
:103568002060206840F002002060A06840F0010060
:10357800A060E06820F00100E060A06840F0020070
:10358800A060E06820F00200E060A06840F004005D
:10359800A060E06820F00400E0604846FEF758FFAD
:1035A800C0B2092840F0CF80CEAD2846FFF716FEFE
:1035B800C0B2092840F0CE800020012147F8100C45
:1035C80008F01F0049F65D1A039601FA00F0C0F2F0
:1035D800000A029040F24410C2F2200000F14F0BA2
:1035E80006E02846FFF7FAFDC0B2092840F0B98086
:1035F8000DF114080D208DF81800012640462946C3
:103608008DF8146000F03EFAA7F10C0040F20001BA
:10361800C2F220014246CDE9086040F22810C2F209
:103628002000A7F11009079000200590381F47F8DF
:1036380008AC47F80C9C47F8045C0A9606F093FF20
:1036480028460A21FFF746F80D2029468DF818006C
:1036580040468DF8146000F015FAA7F10C0040F20E
:103668000001C2F220014246CDE9086040F23C1058
:10367800C2F2200047E9039A079000200590381FFE
:1036880047F8045C0A9606F06EFFDDE90210C0F800
:103698008C104FF4FA702061206840F0010020601F
:1036A800A068C00709D1A068C00704BFA0685FEA86
:1036B800C07002D1A068C007F2D0A06840F24419D7
:1036C800C2F2200940F00100A060206820F001004B
:1036D800206057F8100C013047F8100C09E043EA55
:1036E800821100F102092846FEF7F4FFD9453FF49C
:1036F80078AF484619F9012BB2F1FF3FD1B2F2DC9D
:10370800437801F01F02DF2903F03F03E7D98678E9
:10371800F02906F03F0646EA83130FD3C17802F07A
:10372800070201F03F0141EA831141EA8241B1F504
:10373800881F3FF456AF00F10409D4E743EA023189
:1037480000F10309CFE78DF8140040F2FC00C2F243
:1037580020000CE08DF8140040F20C10C2F220009A
:1037680005E08DF8140040F29410C2F2200040F2F7
:10377800E003009040F2B40005AAC2F22000C2F2B1
:1037880020032B2106F0C4FEFEDEF0B503AF2DE9C1
:10379800000B86B006460120356847F60379CDE967
:1037A8000223C0F2003901908846686900EA0904DA
:1037B800204603F05CFE88B9286901AA414640F416
:1037C800407028614FF4FE40686102208DF81400B3
:1037D80004A8049600F0A6F830B10C460120214652
:1037E80006B0BDE8000BF0BD04980668756905EAE7
:1037F8000904204603F043FE0028EFD1E807F5D07E
:103808004FF4806003F040FE3066756905EA0904EC
:10381800204603F034FE002808BF15F48071F4D068
:103828000028DBD10020214606B0BDE8000BF0BD22
:10383800F0B503AF4DF8048D82B0044648F2FC00A1
:10384800C4F21F000D46016803224FF0010862F31D
:1038580003010160016841F010010160C0F8D083E4
:10386800416862F303014160416841F01001416021
:10387800C0F8D48302202061206980073FD46846BD
:10388800294603F005FF9DF801109DF800009DF8FA
:10389800022001F03F0160F30D219DF8033002F092
:1038A8003F0041EA004003F03F0140EA0160A064A4
:1038B800606A20F00706284603F0EFFE29683044C6
:1038C80060624FF20006A06ACFF2F0069DF804206D
:1038D8006FF31F3130409DF8053062F31B600844D8
:1038E80003F00F0140EA0140A0624FF00110A0650B
:1038F8002046C4F8108002B05DF8048BF0BD0020AB
:10390800206121698907BAD520612169890742BFE9
:10391800206121695FEA8171B1D520612169890738
:10392800EED4ACE7F0B503AF2DE9000F81B09346B4
:103938000446007947F603791268C0F20039022874
:1039480001D11AB943E0002A40D0D0B1D4F800A080
:103958000091DAF80050D5F8148008EA09063046D4
:1039680003F08DFD00287DD15FEAC870F3D0009880
:103978002546DAF800404000C0B203F085FD206615
:103988002C46DBF80800002872D0DBF804B0D4F825
:1039980000A00BEB00080094DAF800506C6904EA08
:1039A8000906304603F06BFD00285BD1E007F5D02F
:1039B8001BF8010BDAF8004000F5007003F064FD15
:1039C800C3452066E8D1009C002054E0C0B9D4F873
:1039D80000A088460094DAF800506C6904EA0906E9
:1039E800304603F04CFDE8BBE007F6D04FEA48004C
:1039F800DAF800400130C0B203F046FD2066009CB2
:103A0800DBF808A0BAF1000F34D0D4F80080009495
:103A1800D8F800506C6904EA0906304603F02FFD17
:103A280000BBE007F6D00321504661F31F20D8F809
:103A3800004003F029FDDBF804B02066009CDA445E
:103A4800D8F80050686900EA0906304603F017FD07
:103A580040B9286F4104F5D40BF8010B0120D34578
:103A6800EED108E00120314601B0BDE8000FF0BDFD
:103A7800002000E0012020710020314601B0BDE89F
:103A8800000FF0BDF0B503AF2DE9000F85B0037945
:103A980088464FF0010A4FF0000CD91E4FF0E30E94
:103AA8004FF000094FF0000BCAB21B2A28BF0521AE
:103AB800CDB2002400210022DFE805F00E15191D03
:103AC800212D383C45494E575E677074797D848A4C
:103AD800919DA6B1CCB9C2004FF0020A90F800C07F
:103AE8004FF0810EB6E0007860F05B0EB2E000782F
:103AF80060F0590EAEE0007860F0510EAAE090F840
:103B080000904FF0070A4478FF2290F802B0C0787E
:103B180040F0260E9EE0017843F0280E90F80190C0
:103B28004FF0060A847890F803B093E0007840F0EC
:103B38002E0E8FE04FF0030A90F800C090F8019025
:103B48004FF0A30E86E0007800F00F0E82E090F8A8
:103B580000E06AF31F1E7DE000784FF0020A00F0D3
:103B68000F0E000900F1100C74E04FF0020A90F8F3
:103B780000C04FF0200E6DE04FF0030A90F800C02F
:103B880090F801904FF0210E64E04FF0030A90F88E
:103B980000C090F801904FF0220E5BE0007860F0D2
:103BA8004F0E57E090F800E06AF39F1E52E000784D
:103BB80060F05F0E4EE04FF0020A90F800C04FF040
:103BC800A80E47E000786FF03F0141EAC00E40E0E0
:103BD8004FF0020A90F800C04FF0D30E3AE0017897
:103BE8004FF0020A40784FF0DA0E090141EA40101E
:103BF80000F1020C2DE001784FF0020A40784FF0F6
:103C0800D50E00F00F0022E001784FF0020A40784C
:103C18004FF0D90E01F00F0141EA001C19E00078BD
:103C28004FF0020A4FF0DB0E4FEA001C12E000785A
:103C380010214FF0020A4FF08D0E41EA800C08E087
:103C480001784FF0020A40784FF0AD0E400140EA8B
:103C5800011C0021002002AE07F82A1CA7F12F0141
:103C6800CDE90200701C07F8292C524607F82B4CA6
:103C780007F82CBC07F82D9C07F82ECC07F82FEC7A
:103C880008F0C2F898F804100AF1010340463246D9
:103C9800FFF77BFD0121002808BF0721084605B072
:103CA800BDE8000FF0BDF0B503AF2DE9000FADF58D
:103CB8001B7D15AD04464FF4E072284608F045F91F
:103CC80005F1340005F1380105F1540200F035FB27
:103CD800479803F0C5FB5F98016841F00101016056
:103CE8005F98016821F002010160459E0021C0F83B
:103CF8000811C0F81811C0F82811C4E98000C4E9F7
:103D08008200C0F83811306820F001003060306857
:103D180040F4004030603068000409D53068000481
:103D280044BF30685FEA004002D530680004F2D42E
:103D38003F20B060306820F001003060DDF8188165
:103D4800D8F8000020F00100C8F80000D8F80000FA
:103D580040F40040C8F80000D8F8000000040CD572
:103D6800D8F80000000444BFD8F800005FEA00401B
:103D780003D5D8F800000004EED43F20C8F80800A6
:103D8800D8F8000020F00100C8F800006C9803F093
:103D980068FBDDF85490CDE9131040F26341D9F87F
:103DA800480040F00100C9F84800D9F84400084329
:103DB800C9F84400D9F84400012161F38300C9F827
:103DC8004400D9F8440020F08000C9F84400D9F82C
:103DD800480040F02000C9F84800D9F8440040F4F1
:103DE8004040C9F84400D9F8440040F44470C9F888
:103DF8004400D9F8480040F08000C9F84800D9F8D4
:103E0800580000070CD0D9F8580000071CBFD9F893
:103E180058005FEA007003D0D9F858000007EED1C7
:103E2800D9F8480040F2634140F02000C9F8480042
:103E3800D9F8440020F44040C9F84400D9F84400B7
:103E4800DDF858A020F4447000F58870C9F84400E3
:103E5800DAF8480040F00100CAF84800DAF84400EF
:103E68000843CAF84400DAF84400012161F38300EA
:103E7800CAF84400DAF8440020F08000CAF8440088
:103E8800DAF8480040F02000CAF84800DAF84400A0
:103E980040F44040CAF84400DAF8440040F4447062
:103EA800CAF84400DAF8480040F08000CAF8480030
:103EB800DAF8580000070CD0DAF8580000071CBFE1
:103EC800DAF858005FEA007003D0DAF85800000703
:103ED800EED1DAF8480040F02000CAF84800DAF8D5
:103EE800440020F44040CAF84400DAF8440020F4C2
:103EF800447000F58870CAF84400DDF8D0B103F0CA
:103F0800EDF9054603F0ECF9034685A859462A461B
:103F180003F0E8F96F9997A84FF4805203F0BFFBBC
:103F28003C9812903E9811903F980F9040980D90B1
:103F380076980B907998DDE92C1209907B98079078
:103F4800204603F062FA61980F22DDF870E100F56F
:103F58009071C4F8D01200F1C001C4F8CC1200F17D
:103F68006001C4F8C8122299109123990E912A99D8
:103F78000C91359904914D990A914F99089154994A
:103F880006915A9905915899039156990291579912
:103F980001914FF47041DDE936C3C4F8C402A0F8BA
:103FA8008C11A0F88E21C4F8C002629800F1C005F7
:103FB80000F5907BC4F8E05200F16005C4F8E4B263
:103FC800C4F8DC52A0F88C11C4E9B500A0F88E2121
:103FD800639800F59075C4F8F85200F1C005C4F86C
:103FE800F45200F16005C4F8F052A0F88C11C4E94D
:103FF800BA00A0F88E216498A0F88C1100F5907191
:10400800C4F80C1300F1C001A0F88E214822C4E9BD
:10401800BF006030C4F804030798C4F890020998F8
:10402800C4F88C020B98C4F888020D98C4F884026E
:104038000F98C4F880021198C4F87C021298C4F84A
:1040480078020498C4F810030198C4F8B8020298DA
:10405800C4F8B4020398C4F8B0020598C4F8AC02D6
:104068000698C4F8A8020898C4F8A4020A98C4F8E4
:10407800A0020C98C4F89C020E98C4F898021098F4
:10408800C4F894021498C4F86C021398C4F808137E
:1040980085A9C4F8680204F50870C4E99C68C4E9F5
:1040A800C79AC4E9C5C3C4F8BCE207F04EFF97AB92
:1040B80004F5047C0FCB8CE80F000DF51B7DBDE8E3
:1040C800000FF0BD02205F217047C0B240283CBFFE
:1040D800C008704780B56F4640F2A41040F2142221
:1040E800C2F22000C2F220020D2106F0DAF9FEDE4B
:1040F80001F0F80100F0F800490541EA4030704746
:1041080080B56F468178E9B102780132D2B2B2FB4C
:10411800F1F303FB1122027022B1D0B2B0FA80F0A1
:10412800400980BDC178B1B1437801335FFA83FC9F
:10413800BCFBF1F303FB11C14170D0B2B0FA80F0BF
:10414800400980BD40F2A02040F28C22C2F220003B
:10415800C2F2200207E040F2A02040F2DC22C2F2C4
:104168002000C2F22002392106F09BF9FEDE80B55C
:104178006F46C17800291FBF42780132D2B2B2FB24
:10418800F1F31FBF03FB11210022027041701CBF15
:10419800084680BD40F2A02040F2EC22C2F2200086
:1041A800C2F22002392106F07CF9FEDE8378C9B21A
:1041B80090F803C0013BDBB2994238BF0B46D1B23D
:1041C800ACF101020370D2B2914238BF0A46427084
:1041D800704702784178104670478278C178104657
:1041E800704700780A464FF0010CC11F0020CBB27F
:1041F800022B38BF5CFA81F040B101280DD140F2A2
:1042080006300D21C2F2200006F03ABD40F213300C
:104218000E21C2F2200006F033BD40F2FC200A2134
:10422800C2F2200006F02CBD7047002101707047D3
:1042380080B56F4600F001F8FEDE80B56F4648F2A3
:1042480048100521C4F21F004FF280030160382195
:10425800C0F8F0114CF26C00C4F20A004DF2801E56
:1042680001684AF2003CC0F2FA23C0F6F00E21F0D1
:10427800080101604CF28400C1F2E11CC4F21B0089
:1042880050F8801C41F0080140F8801C08210160AA
:104298001A46013AFDD141601A46013AFDD1016042
:1042A8001A46013AFDD141601A46013AFDD1016032
:1042B8001A46013AFDD141601A46013AFDD1016022
:1042C8007246013AFDD141607246013AFDD1016062
:1042D8007246013AFDD141607246013AFDD1016052
:1042E8007246013AFDD141607246013AFDD1016042
:1042F8001A46013AFDD141601A46013AFDD10160E2
:104308001A46013AFDD141601A46013AFDD10160D1
:104318001A46013AFDD141601A46013AFDD162467A
:10432800013AFDD1B3E780B56F460A4641F2002154
:10433800C0F27A0103F0D0F880BDF0B503AF4DF8B4
:1043480004BD0E4600211546044603F02AF8284607
:1043580040F2E24103F02CF8304603F015FA40F23F
:10436800A4352146C2F2200500222846366803F00B
:10437800D5F9A81C2146002203F0D0F9281D2146B2
:10438800002203F0CBF9A81D2146002203F0C6F94C
:1043980005F108002146002203F0C0F905F10A00E2
:1043A8002146002203F0BAF905F10C00214600224B
:1043B80003F0B4F905F10E002146002203F0AEF92E
:1043C80005F110002146002203F0A8F905F11200BA
:1043D8002146002203F0A2F905F11400214600222B
:1043E80003F09CF905F116002146002203F096F926
:1043F80005F118002146002203F090F905F11A0092
:104408002146002203F08AF905F11C00214600220A
:1044180003F084F905F11E002146002203F07EF91D
:1044280020684169890107D5416921F0007141611E
:10443800204602F0A7FF20684169012221F060515F
:1044480041612068816962F30D318161204602F083
:1044580099FF2068416941F000714161204602F0EE
:1044680091FF4FF480503060642030604FF400506A
:1044780070603068002809D4306800285CBF306854
:10448800002803D43068B0F1FF3FF2DC2068012235
:10449800016962F302010161204602F073FF20689E
:1044A800416921F4E0514161204602F06BFF206828
:1044B800816941F4402181612068416921F00071DE
:1044C8004161204602F05EFF206840F22805C2F2F2
:1044D80020050022416941F4407141612846214686
:1044E80003F01CF9A81C2146002203F017F9281D27
:1044F8002146002203F012F9A81D2146002203F0EC
:104508000DF92068022640F218050022C2F22005A3
:10451800816B66F3D84181632068816B41F4802107
:1045280081632846214603F0F9F8A81C2146002299
:1045380003F0F4F8281D2146002203F0EFF8A81D27
:104548002146002203F0EAF8206840F2E43503220D
:10455800C2F22005816966F30511816120688169CD
:1045680062F39C61816128462146002203F0D6F857
:10457800A81C2146002203F0D1F8281D214600225C
:1045880003F0CCF8A81D2146002203F0C7F805F176
:1045980008002146002203F0C1F82068172240F2E3
:1045A8001E45C2F22005C16962F30501C161206898
:1045B8000022C16941F04001C1612846214603F04B
:1045C800ADF8A81C2146002203F0A8F8281D2146B2
:1045D800002203F0A3F8A81D2146002203F09EF84C
:1045E80005F108002146002203F098F805F10A00B9
:1045F8002146002203F092F805F10C002146002222
:1046080003F08CF805F10E002146002203F086F82D
:10461800206840F23E45C2F220050322416A41F07B
:10462800400141622068416A66F3050141622846FB
:10463800214603F073F8A81C2146032203F06EF804
:10464800281D2146032203F069F8A81D21460322EC
:1046580003F064F805F108002146032203F05EF830
:1046680005F10A002146032203F058F805F10C0071
:104678002146032203F052F805F10E0021460322D9
:1046880003F04CF805F110002146032203F046F828
:1046980005F112002146032203F040F805F1140049
:1046A8002146032203F03AF805F1160021460322B9
:1046B80003F034F805F118002146032203F02EF820
:1046C80005F11A002146032203F028F805F11C0021
:1046D8002146032203F022F805F11E002146032299
:1046E80003F01CF805F120002146032203F016F818
:1046F80005F122002146032203F010F805F12400F9
:104708002146032203F00AF805F126002146032278
:1047180003F004F805F128002146032202F0FEFF09
:1047280005F12A002146032202F0F8FF05F12C00CA
:104738002146032202F0F2FF05F12E002146032252
:1047480002F0ECFF05F130002146032202F0E6FFFB
:1047580005F132002146032202F0E0FF05F13400A2
:104768002146032202F0DAFF05F136002146032232
:1047780002F0D4FF05F138002146032202F0CEFFF3
:1047880005F13A00214603225DF804BBBDE8F0407C
:1047980002F0C4BF7047F0B503AF2DE9000B8AB033
:1047A80045F20006C2F20006306828B10AB0BDE83A
:1047B800000BBDE8F040004749F200000021C4F2B8
:1047C8000D00C4F22E01039044F2B820C2F200009A
:1047D800CDE901118068062809D104A801A90122A0
:1047E80000F077F8049800285DD1059D1BE000F0E3
:1047F800DAFE00F0D7FE049048F27810C2F200000A
:10480800012200F21240BFF35F8FD0E84F1FC0E8CB
:10481800432F002BF9D1BFF35F8F49B10DF1040984
:1048280099E83002BCBB35600AB0BDE8000BF0BDAA
:1048380048F278154FF48061C2F20005284607F067
:10484800E1FA05F098FD44F2B8218046C2F2000171
:10485800284602F0C8FB20B10DF1040999E830029E
:1048680014E001AA07AB07CA07C348F2781207A8E1
:1048780004ABC2F20002012100F07AF843F25D10A5
:10488800C0F2000002F0BBFC05460024404605F0DB
:104898007DFD002CC7D007A880E8300240F22850E0
:1048A800C2F2200007E004AA07AB07CA07C340F218
:1048B8001850C2F2200040F2A843009040F27C4019
:1048C80007AAC2F22000C2F220032B2105F020FE25
:1048D800FEDEF0B503AF4DF8048D84B015460E46E4
:1048E800044600F060FE00F05DFE009048F278108B
:1048F800C2F20000012200F21240BFF35F8FD0E83D
:104908004F1FC0E8432F002BF9D1BFF35F8F31B1A0
:1049180096E8070007C404B05DF8048BF0BD48F2C0
:1049280078184FF48061C2F20008404607F06AFA2E
:1049380096E8070001AB07C305F01DFD0646404693
:1049480000F050FD01A86B462946424600F010F8D9
:1049580043F25D10C0F2000002F051FC0021C4E9EE
:104968000010304605F012FD04B05DF8048BF0BD70
:10497800F0B503AF2DE90007C6B00E46014648F270
:1049880034100DF1080AC2F200001D46026045F21B
:10499800140246F2000301200090C2F20002C2F2A3
:1049A800000350468DF8076000F09AF850463146EB
:1049B80004F09BF90DF10702504600212B464FF0F9
:1049C800000800F006F9514648F200096CC9C2F225
:1049D800000909F10C006CC07CC97CC091E87C001E
:1049E80049467CC04FF480604022A9F80400504634
:1049F800C9F84480C9F80880C9F8008000F075F942
:104A0800BAE87E0048F23810C2F200007EC09AE888
:104A18007E007EC0322002ACCDF812010220C4F222
:104A280000003CAACDF80E011020ADF80C0145F6A7
:104A38002400C2F2DD704946429009203F9040F2BE
:104A48003850C2F22000CDF800813E902046CDF8C3
:104A5800F08000F041FA0C9D8121284604F0A0F96D
:104A68002846012104F09CF92846822104F098F98F
:104A78002846022104F094F92846832104F090F98D
:104A88002846032104F08CF92846842104F088F98B
:104A98002846042104F084F92846852104F080F989
:104AA8002846052104F07CF92846862104F078F987
:104AB8002846062104F074F92846872104F070F985
:104AC8002846072104F06CF948F248002146C2F252
:104AD8000000E82207F039FA46B0BDE80007F0BD4B
:104AE800F0B503AF2DE9000F8DB01D4616460C46F4
:104AF800814605F05DFCD7F8088041F23810D4F8FB
:104B080000A0D4F808B02C18BFF35F8F54E8000F4A
:104B180040F0004144E80012002AF7D1B0F1FF3F0D
:104B2800BFF35F8F3DDD06F5C0700122BFF35F8FD5
:104B3800D0E84F1FC0E8432F002BF9D1BFF35F8F98
:104B4800D9BB30464FF4C07104F079FFCDE903AB0F
:104B58000DF1040B05F586530622CDE901014FF04E
:104B6800000A58464146CDE9082305F58053ADF8BB
:104B780030A00B940A920793CDE9055202F02AFE61
:104B8800BBE87E0009F104007EC09BE87E007EC081
:104B9800012089F83400C9F800A00DB0BDE8000F65
:104BA800F0BD40F6740040F60812C2F22000C2F2CE
:104BB80020021F2105F042FCFEDE40F2843040F660
:104BC800F802C2F22000C2F22002202105F036FCD1
:104BD800FEDEF0B503AF2DE9000784B0044690F877
:104BE80034001D4691460E4680B32068002869D1DE
:104BF8004FF0FF303146206004F10C0003F064FFF1
:104C080001AECDE90101D5F80080304699F8005091
:104C180003F071FF304603F0B6FF002D18BF0125E1
:104C28003046294603F0BBFF3046012103F07BFFE5
:104C38003046414603F085FF304603F068FF2068A0
:104C48000130206004B0BDE80007F0BD05F0ADFB01
:104C5800804605F0A0FB05F0ABFB206890BB4FF049
:104C6800FF303146206004F10C0003F02DFF01AE47
:104C7800CDE90101D5F800A0304699F8005003F0BD
:104C88003AFF304603F07FFF002D18BF012530465C
:104C9800294603F084FF3046012103F044FF3046E3
:104CA800514603F04EFF304603F031FF20680130D3
:104CB80020605FEAC87008BF05F06FFB04B0BDE86C
:104CC8000007F0BD40F2B45040F24453C2F2200055
:104CD80003AA009040F20E40C2F22000C2F2200364
:104CE800102105F015FCFEDE7047F0B503AF2DE985
:104CF800000F87B004460868002840F0A78091F8A4
:104D080004B0002008600E460BF1010008718868A5
:104D1800002840F096804FF0FF3006F10C059146D0
:104D2800B060FF20082103220290CDE90021284627
:104D38008021002204F01DFA8A46B168C00701F1FB
:104D48000101B16040F09480306800287ED196F867
:104D5800048000200029306008F10102327170D10E
:104D68004FF0FF310022B1600221CDE90019002186
:104D78000290284604F0FDF9B268C00702F101026A
:104D8800B26040F08A80002A04915AD14FF0FF3077
:104D98000021B0600220CDE9000928460291802157
:104DA800002204F0E6F9C00701BFB0680130B06026
:104DB80084F82CB001BF4FF40070A4F8270084F8E1
:104DC8002610A4F8249001BF06F14401216284F85A
:104DD8002D8040F2FF3201BFA4F80F2084F80EA006
:104DE8000822A28101BFA160A4F81B000498A07644
:104DF80001BFA4F8189061610020E08501BFA0718F
:104E0800A2804FF4FA50206002BF07B0BDE8000F3F
:104E1800F0BDB06840F2D45307F8211CC2F2200359
:104E28000130B06040F24460A7F12102C2F22000D4
:104E3800009040F2C450C2F220000F2105F068FB38
:104E4800FEDE40F2E860C2F2200003E040F2287083
:104E5800C2F2200040F27863009040F20E4006AAA9
:104E6800C2F22000C2F22003102105F051FBFEDE41
:104E780040F2546040F2D453C2F22000A7F123025A
:104E8800009040F2C450C2F22000C2F2200307F89A
:104E980023AC0F2105F03CFBFEDE40F2446040F2FB
:104EA800D453C2F2200007F8221C009040F2C450EC
:104EB800C2F22000C2F22003A7F122020F2105F05E
:104EC80027FBFEDE7047084640F26461C2F220010B
:104ED800122205F0CFBE7047F0B503AF2DE9000FE1
:104EE80085B004468868002878D192F821B04FF040
:104EF800FF3001F10C058860002090460E46CDE990
:104F0800000B0290284600210122002304F031F909
:104F18008946B168C00701F10101B16063D1002978
:104F28005CD14FF0FF308021B0600020CDE9000B4C
:104F3800012202902846802304F01BF98A46B168B2
:104F4800C00701F10101B1605FD13068002871D15B
:104F58004FF0FF300029306071D1B060284604F06E
:104F680093F9B0680130B0606ED34FF0FF30802104
:104F7800B06004F12C00BFF35F8F7564BFF35F8FDF
:104F880006F040FF4FF0000C06F14401A4F8D4C02D
:104F9800A4F8CFC084F8CEA0A4F8CCB0C4F8C81048
:104FA800C4F8BC102146A4F8C3C084F8C290A4F881
:104FB800C0B0C4E92DCCC4F8ACC0A562B8E86D0097
:104FC8006DC198E86D006DC14FF4806084F8E4C04D
:104FD800C4F8E00005B0BDE8000FF0BD40F2E8609D
:104FE800C2F2200034E040F2AC7040F23873C2F2F2
:104FF8002000A7F12202009040F22430C2F22000E3
:10500800C2F2200307F8229C10E040F2BC7040F284
:105018003873C2F2200007F821AC009040F2243027
:10502800C2F22000C2F22003A7F12102202105F0DC
:105038006FFAFEDE40F2F860C2F2200008E040F2AB
:105048000870C2F2200003E040F21870C2F220009B
:1050580040F27863009040F20E4004AAC2F22000A9
:10506800C2F22003102105F053FAFEDE7047F0B5B6
:1050780003AF2DE9000F81B045F204014FF0010C98
:10508800C2F20001BFF35F8FD1E84F2FC1E843CFD1
:10509800002BF9D1BFF35F8F002A01BF48F200014E
:1050A800C4F20D010022C4F22F0201BF02F5542CF4
:1050B80002F5502E02F54C28A1F5004401BFA1F5D8
:1050C800003501F5F61601F5F413C0E9683601BF9D
:1050D800C0E96A54C0E96C8EC0E96EC101F5005E92
:1050E80001BF01F5805640F2040CC4F22E0C01F504
:1050F800021401BF0CF5FE7501F5004300F5C078F8
:1051080088E8380001BF00F5C67383E81210C0E9CB
:10511800666EA1F5404C01BF01F5881E01F58618A1
:1051280001F5841401F5821301BF01F5003602F57B
:105138001025C0E9585600F5B47501BF85E81A4135
:10514800C0F87CC1A1F5804C02F51C2E01BF02F508
:10515800182802F51424A1F5E03301F5282601BF2B
:1051680001F5EE15C0E9505600F5A47585E818411B
:1051780001BFC0E9562C02F5782802F5742902F51A
:10518800702401BF02F56C234CF2000CC4F2070C2A
:105198000CF5004601BF01F5E03E01F58E15C0E9AA
:1051A800485EC0E94A6101BF00F5987585E81802B4
:1051B800C0F83C8101F5482801BF01F5442901F5F3
:1051C800402A01F53C2B01F5382301BF01F53424B1
:1051D80001F5302501F52C26C0E9406501BFC0E97D
:1051E8004243C0E944BAC0E9469802F5302801BFF5
:1051F80002F52C2902F5282A02F5242B02F586133C
:1052080001BF02F5841402F5821502F58016C0E983
:10521800386501BFC0E93A43C0E93CBAC0E93E98E5
:1052280001F5F01801BF01F59219A1F5503AA1F561
:10523800403BA1F5303301BF01F5901401F58C1501
:1052480001F58A16C0E9306501BFC0E93243C0E9FB
:1052580034BAC0E9369844F2000B01BFC4F2002BFF
:105268000BF500490BF5804A4FF0844801BF01F562
:105278006C2601F5682401F56425A1F5C03301BF4A
:10528800C0E9283500F1A80383E85009C0E92EA930
:1052980001BF01F5602801F5E61901F5E81AA1F545
:1052A800203601BF0BF5E03301F5582401F55425EC
:1052B800C0E9205401BF00F1880484E84804C0E92B
:1052C800259EC0F89C8001BFA1F5103E01F5FE188F
:1052D80001F5001902F5642A01BF02F5602302F501
:1052E8005C2602F5582501F5A03401BF00F1600BDA
:1052F8008BE87000C0E91B3AC0E91D9801BFC0F8EF
:105308007CE001F5803E02F540480CF5804901BF7C
:1053180001F5804A01F5F21344F20806C4F20906C1
:1053280001BF06F1100506F10804C0E91064C0E9E0
:10533800125301BFC0E914A9C0E9168E0CF5C03E8E
:1053480001F5103801BF01F5801901F57C2401F53C
:10535800782302F57C2601BF02F54825C0E90856E6
:1053680000F1280585E8180201BFC0E90D81C0F8E1
:105378003CE002F5442E02F50C2601BF01F5D215DA
:1053880001F5242402F54022A1F5803301BFA1F5DF
:10539800A031C0E90013C0E9022C103001BF80E839
:1053A800704001B0BDE8000FF0BD40F2CC7040F68F
:1053B8006402C2F22000C2F22002352105F071F821
:1053C800FEDE016848F24810C4F21F000523026897
:1053D80063F303020260486840F008004860032055
:1053E8007047FEE745F20801C2F20001886001201B
:1053F800BFF35F8F08707047006805F0AFB80A46C2
:10540800D0E90031184605F0BFBD7047F0B503AFCD
:105418002DE9000B84B040F6181048F2301848F215
:105428004805C2F220000390C2F2000808F1080003
:10543800C2F2000502A902902846012200F016FBDC
:105448000446A86A002101F056F9064695F8E210CC
:1054580098F80000022933D148B9A86A03F048FE39
:10546800A86A002101F0E7F8012088F80000D8F8C0
:105478001C000168BFF35F8F002900F087800020BF
:1054880098F8222040F64C13009002A8C2F220039C
:10549800344304F09AF87CB1D8F804000122BFF331
:1054A8005F8F00F58264D4E84F1FC4E8432F002BB8
:1054B800F9D1BFF35F8F79B104B0BDE8000BF0BD3F
:1054C80018B1A86A002101F08EF9002088F80000C0
:1054D80004B0BDE8000BF0BDD0F80014BFF35F8F37
:1054E800D0F80824BFF35F8FD0F8043400F20445E5
:1054F800BFF35F8F934205D199423EBFBFF35F8FE1
:1055080000232B60994228BF0A469A4236D0D8F821
:1055180028100968BFF35F8FC1B3A2EB030998F89D
:105528002E20034402A84E46B9F1400F28BF40265A
:10553800009603F08FFF9DF8080068B12078BFF34C
:105548005F8F0028B8D0BFF35F8F55E8000F45E89C
:1055580000010029F9D111E003982178BFF35F8F8A
:105568000029A9D0814538BF4846BFF35F8F55E869
:10557800001F014445E80012002AF8D10020BFF3BB
:105588005F8F207004B0BDE8000BF0BD40F6A0406E
:1055980040F62852C2F22000C2F22002222104F072
:1055A80080FFFEDE70474FF47A607047F0B503AFB6
:1055B8002DE9000F81B000F12C0B1E46904689465C
:1055C8008246D4000D466CB1F5E8020132464B6ABA
:1055D80059469847BAF8D400083C00F00D00042852
:1055E800F1D033E0707AA8B3BAF8D40000F00D0017
:1055F80004282BD1DAF8BC000921AAF8D4100068D5
:10560800BFF35F8FB0B19AF8C210012204F098F886
:10561800DAF8C8000068BFF35F8F00281FBF9AF848
:10562800CE10012201B0BDE8000F1CBFBDE8F0405C
:1056380004F086B840F6A04040F62852C2F2200096
:10564800C2F22002222104F02CFFFEDE01B0BDE8E8
:10565800000FF0BD317AB079022921D0012933D069
:105668000029C1D1002858D0062875D0082804BFC1
:10567800BAF8D4000428B7D19AF8E2000121AAF8B0
:10568800D41000220238BAF8DA10B0FA80F00029F3
:1056980018BF01214009CAE92D218AF82C0057E0DA
:1056A8000028A1D17188DAF8280001F08F0104F0F0
:1056B800C8F8BAF8D410042996D1AAF82C00012009
:1056C800AAF8D40000201EE090B10A2804BFBAF856
:1056D800D40004287FF488AFBAF8DA100020012239
:1056E8008AF82C00AAF8D420002918BF01210FE05D
:1056F800BAF8D40004287FF477AF00200121AAF873
:105708002C00AAF8D410BAF8DA10022928BF02210E
:10571800CAF8B400CAF8B8101AE0BAF8D4000428D5
:105728007FF462AFBAF8DA3001229AF8E300AAF8F7
:10573800D42000229AF8E410022B28BF0223CAE9D9
:105748002D23002818BF012041EA4000AAF82C00A8
:10575800584600F024FC47E75046494642465B4617
:10576800009600F0D5F83FE7F0B503AF2DE9000B40
:1057780084B000F12C0699460C468046D5006DB1E0
:10578800F4E802014A460B6A31469847B8F8D40053
:10579800083D00F00D000428F1D02AE099F809002E
:1057A80058B3B8F8D40000F00D00042821D1D8F877
:1057B800BC000921A8F8D4100068BFF35F8F002847
:1057C80065D098F8C210012203F0BAFFD8F8C800D3
:1057D8000068BFF35F8F00281FBF98F8CE10012222
:1057E80004B0BDE8000B1CBFBDE8F04003F0A8BF43
:1057F8004DE004B0BDE8000BF0BD99F8082099F819
:105808000600B9F800109AB1012A22D0022AC8D19C
:10581800032848D0012808BF0029C2D1B9F80210CE
:105828000022D8F8280001F08F0103F089FF64E016
:1058380001380828B5D8DFE800F0060543054A0511
:1058480005055400ADE70129ABD1002088F8E30035
:1058580053E00B28A5D1002904BFB8F8D4000628C6
:105868007FF49FAFD8F8C8000168BFF35F8F71B1AC
:1058780098F8CE20002040F6DC13009002A8C2F26F
:10588800200303F0E7FD0820A8F8D40089E740F6D4
:10589800A04040F62852C2F22000C2F22002222183
:1058A80004F0FFFDFEDE00297FF47BAFB9F802109B
:1058B8000122D8F8280001F08F0103F041FF1CE015
:1058C80001297FF46EAF012088F8E30015E0481E37
:1058D80080B27F28BFF465AFD8F8280003F087FCB2
:1058E80008E021B101297FF45CAF022003E098F8B9
:1058F800E20038B1012088F8E2003046494600F05D
:105908006DFE4EE73046494600F036FE49E7D4D4EE
:10591800F0B503AF2DE9000B88B00646B868144609
:105928000D4698460196018902684068ADF8101046
:10593800CDE9022002A804F016F94FF0FF3252FA1E
:1059480080F00E2800F26380DFE800F008101C6188
:10595800616161616161616161612A0001A940461B
:1059680000F0ABFD08B0BDE8000BF0BD01A805A92B
:1059780007904046CDE9055400F0AEFC08B0BDE8FC
:10598800000BF0BDC8B2032813D8DFE800F00226E8
:105998002A3A404600F0DAFB08B0BDE8000BF0BD3B
:1059A80040462946224600F010FD08B0BDE8000B2D
:1059B800F0BD084604F0B8F84CB38146BDF80A605B
:1059C80005EBC404D5E9000132464B6949469847BE
:1059D80068B90835A542F5D119E0311D306828B9F4
:1059E80015E006F10C010836306880B10968CDE988
:1059F800050105A9404600F00EFC08B0BDE8000B03
:105A0800F0BD06F11401103630680028EED1B8F860
:105A1800A80000F00D000428A4D1D8F890000921AE
:105A2800A8F8A8100068BFF35F8F98B198F896108F
:105A3800012203F085FED8F89C000068BFF35F8F51
:105A480040B198F8A210012203F07AFE08B0BDE830
:105A5800000BF0BD40F6A04040F62852C2F22000EC
:105A6800C2F22002222104F01CFDFEDEF0B503AFD5
:105A78002DE9000F8DB0846A064605A8884692462F
:105A8800214603F095FF96F8E200BDF8145003286C
:105A980016D1002D4FF0000018BF032D03D10DB013
:105AA800BDE8000FF0BD204603F081FF96F8E10045
:105AB800042800F00681042186F8E20086F8E11047
:105AC800DFE805F003082448030000200DB0BDE816
:105AD800000FF0BDB06A03F01BFC4FF48060BAF110
:105AE800000FC6F8E0004FF00000A6F8D400ECD094
:105AF80008EBCA04A8F1080555F8080F6968896910
:105B0800884705F10800A042F6D1DEE7BDF8160087
:105B1800BDF81810BDF81A200290084340EA02099F
:105B2800049103925FEAC97054D00498C0071CBF5F
:105B380006F12C0000F096FA0398C00719D10298D4
:105B4800C00720D104208DF825009DF825000428E1
:105B580022D13DE0B06A03F02AFF96F8E200032163
:105B680086F8E21086F8E10000200DB0BDE8000FCD
:105B7800F0BD06F12C0107A800F056F99DF82500A4
:105B8800042809D124E006F12C0107A800F0A5F8A3
:105B98009DF8250004281BD09DF8230000287AD002
:105BA800802815D1DDE907010AABBDF82420CDE92D
:105BB8000A013046ADF8302041465246FFF7F6FC60
:105BC80029F00109B9F1000FCDE9008A07D14DE0AC
:105BD80029F00109B9F1000FCDE9008A46D00199F1
:105BE800002953D0009801264FF0020B00EBC108A2
:105BF800A0F1080503981BEA000F0BD02C4654F8B7
:105C0800080F61688A6A3146904704F108004045E8
:105C1800F5D10EE002981BEA000F0AD02C4654F882
:105C2800080F6168CA6A3146904704F10800404588
:105C3800F5D104981BEA000F0DD066F07F04AA4640
:105C48005AF8080FDAF804100A6B214690470AF14F
:105C580008004045F4D129EA0B095FEA094005D05C
:105C6800701C0F2E4FEA4B0B0646C3D3019969B13E
:105C7800009800EBC104A0F1080555F8080F696801
:105C8800C969884705F10800A042F6D101200DB086
:105C9800BDE8000FF0BDDDE907010AABBDF824201F
:105CA800CDE90A013046ADF8302041465246FFF7AB
:105CB8005BFD29F00109B9F1000FCDE9008A8ED109
:105CC800D4E740F64C1040F6CC12C2F22000C2F2E3
:105CD80020021C2104F0B2FBFEDEF0B503AF4DF844
:105CE80004BD86B00446B1F8A8000D46411E03293C
:105CF8002AD3052828D007283BD1D5F88800D5F81D
:105D0800AE30B5F8B2108128D5F8AA20ADF80C103D
:105D1800CDE9012380F08080D5F890100968BFF3A1
:105D28005F8F00296CD0C0F1800395F8962000930E
:105D38002B1804A803F049FC9DF81000002849D04E
:105D48009DF8110038BB3FE0D5F890000168BFF31B
:105D58005F8F002954D095F8962040F6DC1304A8EC
:105D68000026C2F22003009603F02FFCA5F8A860D5
:105D78002AE0D5F890000168BFF35F8F00293FD073
:105D8800002095F8962040F6DC13009004A8C2F293
:105D9800200303F01AFCD5F890000921A5F8A810F3
:105DA8000068BFF35F8F58B395F89610012203F08F
:105DB800C7FCD5F89C000068BFF35F8F00B395F867
:105DC800A210012203F0BCFC0420607206B05DF84A
:105DD80004BBF0BD0598D5E922120844C5F888002F
:105DE8009042F1D3DDE901010623BDF80C20A5F8A6
:105DF800A83020606160228106B05DF804BBF0BD68
:105E080040F6A04040F62852C2F22000C2F220021A
:105E1800222104F046FBFEDE40F644228021C2F235
:105E2800200205F068F9FEDEF0B503AF2DE9000F9A
:105E380085B00446D1F890000D460168BFF35F8F26
:105E4800002900F09680802095F89620009002A8FE
:105E58002B4603F0BAFB9DF8080018B19DF809001D
:105E680060B926E0039A812A80F08F8002A829462B
:105E780003F05BFE9DF81100042820D1D5F89000AE
:105E88000921A5F8A8100068BFF35F8F002870D01B
:105E980095F89610012203F053FCD5F89C00006891
:105EA800BFF35F8F002864D095F8A210012203F099
:105EB80047FC0420607205B0BDE8000FF0BDD5F8BE
:105EC8009000BDF810A09DF80F609DF80E90BDF8E9
:105ED8000CB0DDF808800068BFF35F8F002848D059
:105EE80095F89610002203F02BFCCEB10420A5F8FB
:105EF800B2A085F8B16085F8B090A5F8AEB0C5F845
:105F0800AA80A5F8A800A4F808A0E67184F806906D
:105F1800A4F804B0C4F8008005B0BDE8000FF0BDD7
:105F2800BBF1000F13D0BBF1800FA7D800200721C9
:105F3800A5F8B2A085F8B10085F8B090A5F8AEB084
:105F4800C5F8AA80A5F8A810C5E9220BB1E7062074
:105F5800A4F808A0A5F8A8000020C5F88C00E071F6
:105F680084F80690A080C4F8008005B0BDE8000F52
:105F7800F0BD40F6A04040F62852C2F22000C2F21E
:105F88002002222104F08DFAFEDE40F6542310464A
:105F9800C2F2200380211A4605F0D2F8FEDEB0B521
:105FA80002AF84B00446D0E92051D0F88800D4F874
:105FB8008CC0002DB4F8A030AE46ACEB000208BF90
:105FC800A6469A4238BF1346002D03EB000C08BFC3
:105FD80080219C4529D38C452FD8D4F89C1009687A
:105FE800BFF35F8F89B394F8A22000930EEB0003F0
:105FF80002A803F02FFA9DF8080008B104B0B0BD5C
:106008000398D4E922120144C4F888109142F5D3C8
:106018000021B4F8A020C4F880100321904208BFE2
:106028000221A4F8A81004B0B0BD40F6642261466D
:10603800C2F2200205F0A9F8FEDE40F664226046AE
:10604800C2F2200205F07CF8FEDE40F6A04040F6E1
:106058002852C2F22000C2F22002222104F021FAC2
:10606800FEDED4D4B0B502AF84B00446B0F8A800C0
:10607800013807283AD8DFE800F0040B2739393906
:1060880039562046FFF78BFF0025284604B0B0BDDF
:10609800D4F89C000168BFF35F8F00294AD094F8B8
:1060A800A22040F6DC1302A80025C2F220030095C6
:1060B80003F0D0F99DF80800002804BF0320A4F8D5
:1060C800A800284604B0B0BDD4F890000068BFF31B
:1060D8005F8F78B394F896100022002503F030FB08
:1060E8000520A4F8A800284604B0B0BDD4F8900054
:1060F8000921A4F8A8100068BFF35F8FD0B194F805
:106108009610012203F01CFBD4F89C000068BFF332
:106118005F8F78B194F8A210012203F011FB0025DB
:10612800284604B0B0BD00200125A4F8A8002846E0
:1061380004B0B0BD40F6A04040F62852C2F220009C
:10614800C2F22002222104F0ACF9FEDEF0B503AF62
:106158004DF804BD8AB00446B0F8A800042838D128
:1061680001AD21468022B4F8AE60284603F0FEFC5B
:1061780040F20940A7F1120227F8120C2846032121
:10618800022303F0FCFCC0B208281ED101A803F0CA
:10619800F4FC802822D9D4F890000921A4F8A8108A
:1061A8000068BFF35F8F50B394F89610012203F094
:1061B800C7FAD4F89C000068BFF35F8FF8B194F871
:1061C800A210012203F0BCFA02200AB05DF804BB59
:1061D800F0BD07200AB05DF804BBF0BD0121B04254
:1061E800A4F8A81038BF064600212046C4E92216A4
:1061F800FFF7D5FE08200AB05DF804BBF0BD40F6F5
:10620800A04040F62852C2F22000C2F22002222109
:1062180004F047F9FEDEF0B503AF2DE9000B88B0B6
:106228000446B0F8A800042834D1E846D1E900565D
:10623800404621468022B4F8AE9003F097FC4046D1
:106248002946324603F0C6FEC0B208281ED1684669
:1062580003F093FC802822D9D4F890000921A4F8EF
:10626800A8100068BFF35F8F50B394F8961001220E
:1062780003F066FAD4F89C000068BFF35F8FF8B1AA
:1062880094F8A210012203F05BFA022008B0BDE8DE
:10629800000BF0BD072008B0BDE8000BF0BD0121E0
:1062A8004845A4F8A81038BF814600212046C4E913
:1062B8002219FFF774FE082008B0BDE8000BF0BDF6
:1062C80040F6A04040F62852C2F22000C2F2200256
:1062D800222104F0E6F8FEDEF0B503AF2DE9000751
:1062E80088B08246B0F8A80004284CD16D46D1E9A0
:1062F80000698C68284651468022BAF8AE8003F0BF
:1063080035FC2168284603F022FDC0B2082836D1A2
:10631800B9F1000F10D006EBC9046D46D6E90001AB
:10632800CA6829469047C0B2082828D1284603F0F1
:1063380077FD0836A642F1D16D46284603F073FD75
:10634800284603F01AFC802822D9DAF8900009219F
:10635800AAF8A8100068BFF35F8F50B39AF8961098
:10636800012203F0EDF9DAF89C000068BFF35F8FB3
:10637800F8B19AF8A210012203F0E2F9022008B05D
:10638800BDE80007F0BD072008B0BDE80007F0BD74
:1063980001214045AAF8A81038BF80460021504680
:1063A800CAE92218FFF7FBFD082008B0BDE800077E
:1063B800F0BD40F6A04040F62852C2F22000C2F2DA
:1063C8002002222104F06DF8FEDEF0B503AF2DE9BE
:1063D800000F8BB08346B0F8A800042825D1E94601
:1063E80090460D46484659468022BBF8AEA003F0B9
:1063F800BDFB08AE4946304603F0AAFE304603F01E
:10640800ABFEC0B208280CD108AE4FEAC8048CB164
:10641800F5E802010A6931469047083CC0B20828ED
:10642800F5D00BB0BDE8000FF0BD07200BB0BDE8FC
:10643800000FF0BD08A803F063FF684603F09DFB5A
:1064480080281DD9DBF890000921ABF8A810006856
:10645800BFF35F8F28B39BF89610012203F070F901
:10646800DBF89C000068BFF35F8FD0B19BF8A210E7
:10647800012203F065F902200BB0BDE8000FF0BD62
:1064880001215045ABF8A81038BF82460021584674
:10649800CBE9221AFFF783FD08200BB0BDE8000FF7
:1064A800F0BD40F6A04040F62852C2F22000C2F2E9
:1064B8002002222103F0F5FFFEDEF0B503AF4DF810
:1064C800048D88B00446B0F8A800042832D16E467E
:1064D8000D68304621468022B4F8AE8003F046FBB2
:1064E8003046294603F098FBC0B208281ED16846FA
:1064F80003F043FB802822D9D4F890000921A4F89E
:10650800A8100068BFF35F8F50B394F8961001226B
:1065180003F016F9D4F89C000068BFF35F8FF8B158
:1065280094F8A210012203F00BF9022008B05DF8DC
:10653800048BF0BD072008B05DF8048BF0BD012185
:106548004045A4F8A81038BF804600212046C4E979
:106558002218FFF724FD082008B05DF8048BF0BD71
:1065680040F6A04040F62852C2F22000C2F22002B3
:10657800222103F096FFFEDED0B502AF0446B0F844
:10658800A80000F00D0004281AD1D4F890000921C1
:10659800A4F8A8100068BFF35F8F98B194F896101C
:1065A800012203F0CDF8D4F89C000068BFF35F8F98
:1065B80040B194F8A210012203F0C2F80820D0BD1F
:1065C8000720D0BD40F6A04040F62852C2F2200075
:1065D800C2F22002222103F064FFFEDED0B502AF32
:1065E80084B00446B0F8A800062815D1D4F89C0059
:1065F8000168BFF35F8F91B1002094F8A22040F6A4
:10660800DC13009002A8C2F2200302F023FF082046
:10661800A4F8A80004B0D0BD072004B0D0BD40F64F
:10662800A04040F62852C2F22000C2F220022221E5
:1066380003F037FFFEDEF0B503AF4DF804BD84B0BC
:10664800044690F834000E46E0B12068002840D196
:106658004FF0FF31204640F80C1B314602F034FA67
:10666800CDE9010101A802F0B2FA00281CBF0DF122
:10667800040002F02AFA20680130206004B05DF8B6
:1066880004BBF0BD03F091FE054603F084FE03F061
:106698008FFE2068E8B94FF0FF31204640F80C1B08
:1066A800314602F011FACDE9010101A802F08FFA92
:1066B80000281CBF0DF1040002F007FA2068013021
:1066C8002060E80708BF03F068FE04B05DF804BB6B
:1066D800F0BD40F6F42040F68423C2F2200003AA5D
:1066E800009040F20E40C2F22000C2F220031021B6
:1066F80003F00EFFFEDEF0B503AF4DF804BD84B025
:10670800044690F834000E46D8B12068002858D1C5
:106718004FF0FF31204640F80C1B314602F0D4F907
:10672800CDE9010101A802F01EFA60B301AD2846C7
:1067380002F029FA284602F016FA0028F7D10126B5
:1067480026E003F032FE054603F025FE03F030FE96
:106758002068B0BB4FF0FF31204640F80C1B314693
:1067680002F0B2F9CDE9010101A802F0FCF9B8B1D3
:1067780001AE304602F007FA304602F0F4F900287C
:10678800F7D1012611E001A802F0ABF980F001066B
:10679800206801302060304604B05DF804BBF0BDCD
:1067A80001A802F09EF980F00106206801302060FF
:1067B800E80708BF03F0F1FD304604B05DF804BBFC
:1067C800F0BD40F6F42040F68423C2F2200003AA6C
:1067D800009040F20E40C2F22000C2F220031021C5
:1067E80003F096FEFEDEF0B503AF4DF804BD84B0AD
:1067F800044690F834000D46A8B12068A0BB4FF0BD
:10680800FF302946206004F10C0002F05DF9CDE963
:10681800010101A802F06FF920680130206004B07E
:106828005DF804BBF0BD03F0C0FD064603F0B3FD00
:1068380003F0BEFD2068B8B94FF0FF30294620604C
:1068480004F10C0002F040F9CDE9010101A802F0C1
:1068580052F9206801302060F00708BF03F09DFD61
:1068680004B05DF804BBF0BD40F6F42040F6842384
:10687800C2F2200003AA009040F20E40C2F22000AB
:10688800C2F22003102103F043FEFEDE7047002011
:1068980070477047082070477047F0B503AF4DF850
:1068A800048D0546507A012802BF1646107A012841
:1068B80002D05DF8048BF0BD95F82C0088467488EA
:1068C80003F032F9C0B28442F3D1B079212804BF71
:1068D800B088072830D0B8F8A80000F00D000428C8
:1068E800E7D1D8F890000921A8F8A8100068BFF3EC
:1068F8005F8FA8B198F89610012202F021FFD8F80E
:106908009C000068BFF35F8F00281FBF98F8A21093
:1069180001225DF8048BBDE8F04018BF02F010BFFB
:1069280040F6A04040F62852C2F22000C2F22002EF
:10693800222103F0B6FDFEDEB8F8A8000428B8D17D
:10694800B8F8AE00012329796A790728A8F8A83091
:10695800AB792E684FF00005C8F8006088F804305D
:1069680088F8052088F8061028BF0720C8E92250B3
:1069780040465DF8048BBDE8F040FFF710BBF0B56A
:1069880003AF4DF8048D84B00546507A012802BF44
:106998001646107A012803D004B05DF8048BF0BDC8
:1069A80095F82C008846748803F0BEF8C0B284427B
:1069B800F2D1B07988B1202814D0222847D1307874
:1069C800B8F8A81000F0010285F82E20C0F34000A6
:1069D80085F82F000629DFD121E0B8F8A80006289D
:1069E800DAD11CE0D8F88C00812862D206282ED98A
:1069F80098F80400D8F80010296000F001FC98F815
:106A08000510C0B2A871084600F0FFFB98F80620F0
:106A1800C0B2B8F8A81068712A710629BCD1D8F894
:106A28009C000168BFF35F8FB9B398F8A2200020DB
:106A380040F6DC13009002A8C2F2200302F00AFD1F
:106A48000820A8F8A80004B05DF8048BF0BDB8F8D9
:106A5800A80000F00D0004289ED1D8F89000092164
:106A6800A8F8A8100068BFF35F8FB0B198F8961027
:106A7800012202F065FED8F89C000068BFF35F8F22
:106A880000281FBF98F8A210012204B05DF8048BFB
:106A98001CBFBDE8F04002F053BE40F6A04040F6EF
:106AA8002852C2F22000C2F22002222103F0F9FC8F
:106AB800FEDE40F674228021C2F2200204F040FB80
:106AC800FEDEF0B503AF2DE9000B84B090F82C6022
:106AD800814600250220CDE900050C4608463146CE
:106AE8000222022303F0B0F9C0B208286ED1204672
:106AF800314602220223009503F0FDF9C0B20828AE
:106B080064D140F604322046C2F220022421032335
:106B180003F035F8C0B2082858D140F607322046AD
:106B2800C2F220022421022303F029F8C0B2082867
:106B38004CD1304602F0F8FF99F82D8006464046C1
:106B480002F0F2FF07F81C0C0620A7F11E0207F856
:106B58001E0C20462421032307F81D6C03F00FF8B0
:106B6800C0B2082832D1404602F0DEFF07F8190CFF
:106B78000120A7F11B0227F81B0C20462421032320
:106B880002F0FDFFC0B2082820D109F10801204613
:106B980000F02FF8C0B2082818D100204146009014
:106BA80020460A22002303F0A6F9C0B208280DD116
:106BB80009F12001204600F01CF8C0B2082805D1D0
:106BC80009F11401204600F014F8C0B204B0BDE881
:106BD800000BF0BDD0B502AF82B00446684600F0A5
:106BE80019FBDDE90001C4E900010020E08502B0DD
:106BF800D0BDF0B503AF4DF8048D8C46016981B363
:106C0800416843698B4249D20268D0F818E0D45CE5
:106C18000134D4540EF102038B421ED80EF5807451
:106C2800A14238BF0C469C4248D3E41A052C14D321
:106C38009CF80640BCF80450D45413440EF10704E1
:106C48009CF808608C429CF807805E704FEA152615
:106C58009D7083F80480DE7007D902205DF8048BEC
:106C6800F0BD07205DF8048BF0BD8E451ED20723CA
:106C780002F80E300EF101038B423FBF0521D154BB
:106C8800846108203CBF5DF8048BF0BD40F690326B
:106C9800C2F22002184603F01BFCFEDE40F6A032CA
:106CA800C2F22002184603F013FCFEDE40F68032E2
:106CB8007046C2F2200203F00BFCFEDE40F6703292
:106CC8001846C2F22002214604F05FFAFEDE704741
:106CD800F0B503AF4DF804BD84B00068802906689C
:106CE8004FF00000029003D201248DF8081034E020
:106CF800B1F5006F09D20224084664F39F108DF89D
:106D08000900C02040EA911025E002200A4660F3FD
:106D18009F12B1F5803F0DD28DF80A208A0960F3E1
:106D28009F12E02040EA11308DF809208DF8080004
:106D3800032412E08DF80B208A0960F39F128DF866
:106D48000A200A0B042460F39F12880C1E218DF878
:106D5800092061F3DF008DF8080003F00CFB0546FD
:106D68003068B0B94FF0FF30321D306002A82146BC
:106D780000F057F90446306801303060284603F0C7
:106D880005FBE0B2033818BF012004B05DF804BB6E
:106D9800F0BD40F6684040F6F033C2F2200003AA86
:106DA800009040F20E40C2F22000C2F220031021EF
:106DB80003F0AEFBFEDEF0B503AF4DF8048D88B0EE
:106DC800D0F800C002AA91E8714140F6B0311346EC
:106DD800C2F2200183E8714101A8CDF804C003F094
:106DE800C2FB08B05DF8048BF0BDF0B503AF4DF8F9
:106DF800048D82B0006815460E46046803F0BBFA9D
:106E080080462068B0B94FF0FF30221D2060304620
:106E1800294600F006F90546206801302060404602
:106E280003F0B4FAE8B2033818BF012002B05DF8E5
:106E3800048BF0BD40F6684040F6F033C2F2200003
:106E480001AA009040F20E40C2F22000C2F22003D4
:106E5800102103F05DFBFEDEF0B503AF2DE900075E
:106E680048F29052D1F80880C2F200021368B8EBD9
:106E7800030218BF0122984538BF4FF0FF32531C58
:106E88001CBFD2B2002A29D1C2685AB38068002533
:106E9800D1E9009A02EB4201061D8C0005E00C3C8A
:106EA80006F10C0605F1010518D030685045F6D1F9
:106EB80056F8040C4946524605F045F80028EED12C
:106EC800706800218045A0F10600B0FA80F098BFF4
:106ED800012140090843BDE80007F0BD0020BDE8D6
:106EE8000007F0BD0120BDE80007F0BDF0B503AF15
:106EF8002DE9000F93B0009048F29050C2F20000C4
:106F08008A46D1F828900168B9EB010018BF012022
:106F1800894538BF4FF0FF30411C1CBFC0B2002864
:106F280022D10099C86818B3896800EB4000DAE9F3
:106F380008B54FF000080C1D860005E00C3E04F172
:106F48000C0408F101080FD02068A842F6D154F8C3
:106F5800040C59462A4604F0F6FF0028EED1606872
:106F6800062818BF814505D913B0BDE8000FF0BD4C
:106F7800DAE908B5009840F6B031019043F24910BB
:106F8800C0F200000DAA07900BA8069043F24F101C
:106F9800C0F20000C2F22001059009A8049044F64E
:106FA8007770C0F20000CDF82090039008A80290F6
:106FB80001A80C900320129002A8119004201090B0
:106FC80040F6D030C2F22000CDE909B50F9000207C
:106FD8000D900CA8CDF82CA003F0C5FA13B0BDE8AD
:106FE800000FF0BD7047D0B502AF48F268120C46EA
:106FF800D1E900C3C2F200020021C2E902C3C2E91A
:10700800001040F68441C2F22001104600F01DF93C
:10701800002801BFA16848F29052C2F20002116034
:10702800D0BDF0B503AF2DE9000F81B0D2F80080D4
:1070380089460446012108F21145BFF35F8FD5E860
:107048004F0FC5E8421F002AF9D1BFF35F8F20B167
:10705800012001B0BDE8000FF0BDD8F80004BFF36F
:107068005F8FD8F80414BFF35F8F814204D9C243FD
:1070780011EB020B0BD179E0B0F5806F05D1012936
:1070880074D9A1F1010B002001E0C0F5806BCA465C
:10709800CB4538BFDA460AEB00014044BFF35F8FA7
:1070A800C8F80C142146524604F0AEFE98F81104B4
:1070B80008F20C46BFF35F8F58B3D8F80004BFF34B
:1070C8005F8FBFF35F8F56E8001F46E80012002A63
:1070D800F9D1BFF35F8FB0F5806FD8F80824BFF3FC
:1070E8005F8FD8F80C14BFF35F8F01D0814203D3B0
:1070F800914205D94FF48060BFF35F8FC8F8080448
:10710800BFF35F8FC8F800140020BFF35F8F88F8C3
:107118001104CB456ED204EB0A01A9EB0A02012344
:10712800BFF35F8FD5E84F0FC5E8443F002CF9D176
:10713800BFF35F8F20B1012001B0BDE8000FF0BDA3
:10714800D8F80004BFF35F8FD8F80434BFF35F8F1B
:10715800834203D9C4431B1913D107E0B0F5806FEC
:107168000DD1012B02D9013B00200AE000200021AB
:10717800BFF35F8F297001B0BDE8000FF0BDC0F507
:107188008063934238BF1A4613184044BFF35F8F99
:10719800C8F80C3404F038FE98F81104BFF35F8F78
:1071A80040B3D8F80004BFF35F8FBFF35F8F56E892
:1071B800001F46E80012002AF9D1BFF35F8FB0F52F
:1071C800806FD8F80824BFF35F8FD8F80C14BFF38A
:1071D8005F8F01D0814203D3914205D94FF480607B
:1071E800BFF35F8FC8F80804BFF35F8FC8F80014B7
:1071F8000320BCE7032001B0BDE8000FF0BD7047D5
:10720800C1B2032928BF00207047C1B2052928BF91
:107218000020704708218180002181714FF4FA51C4
:10722800016070477047006840F68452C2F220023D
:107238000B4652F8301002EBC0004268184603F0C3
:10724800E7BB002070477047704780B56F4648F22B
:107258008C5EC2F2000E5EE8003F53B94FF0010C9D
:10726800BFF35F8F4EE800C22AB15EE8003F002BF3
:10727800F8D0BFF32F8FBFF35F8F13B1012B1ED050
:107288002AE044F2C422C2F20002C2E9000102204C
:10729800BFF35F8FCEF800000020BFF35F8F80BD83
:1072A80010BFDEF80000BFF35F8F012801BF10BFD9
:1072B800DEF80000BFF35F8F01280DD110BFDEF8A4
:1072C8000000BFF35F8F012801BF10BFDEF8000088
:1072D800BFF35F8F0128E3D0012080BD02207047F3
:1072E8000F207047B0B502AF054608680C4640F459
:1072F80080300860086840F040000860222063F38E
:107308001340486040F26850C0F20C10086240F226
:107318009510C0F2B2004862DC20C0F27A008862A0
:107328007D20C0F25800C8624B20C0F240000863BC
:107338002F20C0F22E004863886346F62010C860EC
:1073480040F6A31088604FF4C840C8614FF4C86085
:10735800886140F6C410C0F6804008613F2048614B
:10736800086820F0030010430860086820F48030A3
:107378000860C86F4021284604F044FD1020C5E984
:107388001004B0BD006803E0816C002908BF704795
:10739800816C29B1816C00291CBF816C0029F3D153
:1073A80070470068426D22F003021143416570473F
:1073B80040F22762914238BF0A46B2F5487F98BF2B
:1073C8004FF44872A2F5487144F2AF7300688AB26C
:1073D8005A43C368A1EB124189B2490801EB124133
:1073E80023F01F0242EA1111C16004E00168B1F103
:1073F800FF3FD8BF70470168002905D401680029FC
:107408005CBF01680029F1D57047F0B503AF2DE9DD
:10741800000B84B04FF40071044604F0F3FC44F20E
:10742800CC29A4F11005C2F200090026E8464C4612
:10743800D9E9600103940291CDE90060404602F069
:1074480073FF9DE80F0001360C3445F8100F202E0D
:1074580005F104000EC0EBD104B0BDE8000BF0BD8F
:10746800704700F1340200F150011046704700F0F7
:10747800407000F17E40B0FA80F04009704710F487
:10748800705018BF0120704701466FF0010000EBF3
:107498001120C2B2042A28BF04224FF40070DFE88A
:1074A80002F003051A0B1200C8B270470122C1FA94
:1074B80052F062F31F2070470120C1FA50F00321F7
:1074C80061F31F207047C8B2C9055CBF00F5806032
:1074D800704700F5A0607047D0B502AF86B040F69F
:1074E800546C4FFA82FEC2F2200C4AF6AB235CF8C9
:1074F8002E20B1FBF2F2043A140A022C07D892B2F9
:107508005A43520CD4B2202C01D2002193E05CF8EB
:107518002E204C08B4FBF2F2033A140A022C07D8C6
:1075280092B25A43520CD3B2202B01D2012182E0ED
:107538005CF82E208B08B3FBF2F24AF6AB23023A32
:10754800140A022C07D892B25A43520CD4B2202CF7
:1075580001D202216FE05CF82E20CC08B4FBF2F2D5
:10756800023A140A022C07D892B25A43520CD3B2E8
:10757800202B01D203215EE05CF82E200B09B3FB1F
:10758800F2F24AF6AB23023A140A022C07D892B256
:107598005A43520CD4B2202C01D204214BE05CF89F
:1075A8002E204C09B4FBF2F2023A140A022C07D836
:1075B80092B25A43520CD3B2202B01D205213AE0A1
:1075C8005CF82E208B09B3FBF2F24AF6AB23023AA1
:1075D800140A022C07D892B25A43520CD4B2202C67
:1075E80001D2062127E05CF82E20C909B1FBF2F18F
:1075F80002390A0A022A9FBF89B259434A0CD1B2FA
:1076080098BF202916D3012040F6B451039040F6C4
:107618003C60C2F22000C2F22001029000200491D6
:1076280040F644610590C2F220010090684602F0DD
:1076380022FFFEDE0721002340F264348381130613
:107648004FEA4203C2F2200454F821C008BF0122C5
:10765800DBB2032B4FF00101027298BF0323D4B2AF
:107668004372012C88BF6108C172022C98BF0224A2
:10767800E118013204234900847253FA81F1D2B22D
:10768800C0F804C0914288BF0A46026006B0D0BD67
:107698008A68898981800260704740687047F0B5C0
:1076A80003AF2DE9000B44F2E043C4F21F031B684B
:1076B800C3F30B2E4FEA135CE6451FBF0124C1F844
:1076C8008841DBB24FF47A781FBF03FB08F9ACEBB3
:1076D8000E04D1F8906149F658651FBFCFF6FF75C3
:1076E80013FB085393FBF4F3C2EA06021FBFC1F869
:1076F8009021C0E9003EC0E90291BDE8000B18BF27
:10770800F0BD40F6F06040F6D462C2F22000C2F24A
:107718002002192102F0C5FEFEDED4D490F801C083
